{
  "abi": [
    {
      "inputs": [
        {
          "internalType": "address",
          "name": "_token",
          "type": "address"
        }
      ],
      "stateMutability": "nonpayable",
      "type": "constructor"
    },
    {
      "anonymous": false,
      "inputs": [
        {
          "indexed": true,
          "internalType": "address",
          "name": "owner",
          "type": "address"
        },
        {
          "indexed": true,
          "internalType": "address",
          "name": "spender",
          "type": "address"
        },
        {
          "indexed": false,
          "internalType": "uint256",
          "name": "value",
          "type": "uint256"
        }
      ],
      "name": "Approval",
      "type": "event"
    },
    {
      "anonymous": false,
      "inputs": [
        {
          "indexed": true,
          "internalType": "address",
          "name": "from",
          "type": "address"
        },
        {
          "indexed": true,
          "internalType": "address",
          "name": "to",
          "type": "address"
        },
        {
          "indexed": false,
          "internalType": "uint256",
          "name": "value",
          "type": "uint256"
        }
      ],
      "name": "Transfer",
      "type": "event"
    },
    {
      "inputs": [
        {
          "internalType": "uint256",
          "name": "_tokenAmount",
          "type": "uint256"
        }
      ],
      "name": "addLiquidity",
      "outputs": [
        {
          "internalType": "uint256",
          "name": "",
          "type": "uint256"
        }
      ],
      "stateMutability": "payable",
      "type": "function"
    },
    {
      "inputs": [
        {
          "internalType": "address",
          "name": "owner",
          "type": "address"
        },
        {
          "internalType": "address",
          "name": "spender",
          "type": "address"
        }
      ],
      "name": "allowance",
      "outputs": [
        {
          "internalType": "uint256",
          "name": "",
          "type": "uint256"
        }
      ],
      "stateMutability": "view",
      "type": "function"
    },
    {
      "inputs": [
        {
          "internalType": "address",
          "name": "spender",
          "type": "address"
        },
        {
          "internalType": "uint256",
          "name": "amount",
          "type": "uint256"
        }
      ],
      "name": "approve",
      "outputs": [
        {
          "internalType": "bool",
          "name": "",
          "type": "bool"
        }
      ],
      "stateMutability": "nonpayable",
      "type": "function"
    },
    {
      "inputs": [
        {
          "internalType": "address",
          "name": "account",
          "type": "address"
        }
      ],
      "name": "balanceOf",
      "outputs": [
        {
          "internalType": "uint256",
          "name": "",
          "type": "uint256"
        }
      ],
      "stateMutability": "view",
      "type": "function"
    },
    {
      "inputs": [],
      "name": "decimals",
      "outputs": [
        {
          "internalType": "uint8",
          "name": "",
          "type": "uint8"
        }
      ],
      "stateMutability": "view",
      "type": "function"
    },
    {
      "inputs": [
        {
          "internalType": "address",
          "name": "spender",
          "type": "address"
        },
        {
          "internalType": "uint256",
          "name": "subtractedValue",
          "type": "uint256"
        }
      ],
      "name": "decreaseAllowance",
      "outputs": [
        {
          "internalType": "bool",
          "name": "",
          "type": "bool"
        }
      ],
      "stateMutability": "nonpayable",
      "type": "function"
    },
    {
      "inputs": [
        {
          "internalType": "uint256",
          "name": "_minTokensOut",
          "type": "uint256"
        }
      ],
      "name": "ethToTokenSwap",
      "outputs": [],
      "stateMutability": "payable",
      "type": "function"
    },
    {
      "inputs": [
        {
          "internalType": "uint256",
          "name": "_minTokensOut",
          "type": "uint256"
        },
        {
          "internalType": "address",
          "name": "recepient",
          "type": "address"
        }
      ],
      "name": "ethToTokenTransfer",
      "outputs": [],
      "stateMutability": "payable",
      "type": "function"
    },
    {
      "inputs": [],
      "name": "factoryAddress",
      "outputs": [
        {
          "internalType": "address",
          "name": "",
          "type": "address"
        }
      ],
      "stateMutability": "view",
      "type": "function"
    },
    {
      "inputs": [
        {
          "internalType": "uint256",
          "name": "_tokenSold",
          "type": "uint256"
        }
      ],
      "name": "getEthAmount",
      "outputs": [
        {
          "internalType": "uint256",
          "name": "",
          "type": "uint256"
        }
      ],
      "stateMutability": "view",
      "type": "function"
    },
    {
      "inputs": [
        {
          "internalType": "address",
          "name": "_token",
          "type": "address"
        }
      ],
      "name": "getLPtoken",
      "outputs": [
        {
          "internalType": "string",
          "name": "LPtoken",
          "type": "string"
        }
      ],
      "stateMutability": "view",
      "type": "function"
    },
    {
      "inputs": [],
      "name": "getReserve",
      "outputs": [
        {
          "internalType": "uint256",
          "name": "",
          "type": "uint256"
        }
      ],
      "stateMutability": "view",
      "type": "function"
    },
    {
      "inputs": [
        {
          "internalType": "uint256",
          "name": "_ethSold",
          "type": "uint256"
        }
      ],
      "name": "getTokenAmount",
      "outputs": [
        {
          "internalType": "uint256",
          "name": "",
          "type": "uint256"
        }
      ],
      "stateMutability": "view",
      "type": "function"
    },
    {
      "inputs": [
        {
          "internalType": "address",
          "name": "spender",
          "type": "address"
        },
        {
          "internalType": "uint256",
          "name": "addedValue",
          "type": "uint256"
        }
      ],
      "name": "increaseAllowance",
      "outputs": [
        {
          "internalType": "bool",
          "name": "",
          "type": "bool"
        }
      ],
      "stateMutability": "nonpayable",
      "type": "function"
    },
    {
      "inputs": [],
      "name": "name",
      "outputs": [
        {
          "internalType": "string",
          "name": "",
          "type": "string"
        }
      ],
      "stateMutability": "view",
      "type": "function"
    },
    {
      "inputs": [
        {
          "internalType": "uint256",
          "name": "_amount",
          "type": "uint256"
        }
      ],
      "name": "removeLiquidity",
      "outputs": [
        {
          "internalType": "uint256",
          "name": "",
          "type": "uint256"
        },
        {
          "internalType": "uint256",
          "name": "",
          "type": "uint256"
        }
      ],
      "stateMutability": "nonpayable",
      "type": "function"
    },
    {
      "inputs": [],
      "name": "symbol",
      "outputs": [
        {
          "internalType": "string",
          "name": "",
          "type": "string"
        }
      ],
      "stateMutability": "view",
      "type": "function"
    },
    {
      "inputs": [],
      "name": "tokenAddress",
      "outputs": [
        {
          "internalType": "address",
          "name": "",
          "type": "address"
        }
      ],
      "stateMutability": "view",
      "type": "function"
    },
    {
      "inputs": [
        {
          "internalType": "uint256",
          "name": "tokensIn",
          "type": "uint256"
        },
        {
          "internalType": "uint256",
          "name": "_minEthOut",
          "type": "uint256"
        }
      ],
      "name": "tokenToEthSwap",
      "outputs": [],
      "stateMutability": "nonpayable",
      "type": "function"
    },
    {
      "inputs": [
        {
          "internalType": "uint256",
          "name": "tokensIn",
          "type": "uint256"
        },
        {
          "internalType": "address",
          "name": "tokensOutAddress",
          "type": "address"
        },
        {
          "internalType": "uint256",
          "name": "_minTokensOut",
          "type": "uint256"
        }
      ],
      "name": "tokenToTokenSwap",
      "outputs": [],
      "stateMutability": "nonpayable",
      "type": "function"
    },
    {
      "inputs": [],
      "name": "totalSupply",
      "outputs": [
        {
          "internalType": "uint256",
          "name": "",
          "type": "uint256"
        }
      ],
      "stateMutability": "view",
      "type": "function"
    },
    {
      "inputs": [
        {
          "internalType": "address",
          "name": "to",
          "type": "address"
        },
        {
          "internalType": "uint256",
          "name": "amount",
          "type": "uint256"
        }
      ],
      "name": "transfer",
      "outputs": [
        {
          "internalType": "bool",
          "name": "",
          "type": "bool"
        }
      ],
      "stateMutability": "nonpayable",
      "type": "function"
    },
    {
      "inputs": [
        {
          "internalType": "address",
          "name": "from",
          "type": "address"
        },
        {
          "internalType": "address",
          "name": "to",
          "type": "address"
        },
        {
          "internalType": "uint256",
          "name": "amount",
          "type": "uint256"
        }
      ],
      "name": "transferFrom",
      "outputs": [
        {
          "internalType": "bool",
          "name": "",
          "type": "bool"
        }
      ],
      "stateMutability": "nonpayable",
      "type": "function"
    }
  ],
  "bytecode": {
    "object": "0x60806040523480156200001157600080fd5b5060405162001d9c38038062001d9c83398101604081905262000034916200028c565b6200003f8162000102565b6200004a8262000102565b81516200005f906003906020850190620001e6565b50805162000075906004906020840190620001e6565b5050506001600160a01b038116620000d35760405162461bcd60e51b815260206004820152601560248201527f696e76616c696420746f6b656e20616464726573730000000000000000000000604482015260640160405180910390fd5b600580546001600160a01b039092166001600160a01b031992831617905560068054909116331790556200043f565b60606000826001600160a01b03166395d89b416040518163ffffffff1660e01b815260040160006040518083038186803b1580156200014057600080fd5b505afa15801562000155573d6000803e3d6000fd5b505050506040513d6000823e601f3d908101601f191682016040526200017f9190810190620002bc565b9050604051806040016040528060048152602001634554482d60e01b81525081604051806040016040528060038152602001620204c560ec1b815250604051602001620001cf9392919062000370565b604051602081830303815290604052915050919050565b828054620001f490620003ec565b90600052602060002090601f01602090048101928262000218576000855562000263565b82601f106200023357805160ff191683800117855562000263565b8280016001018555821562000263579182015b828111156200026357825182559160200191906001019062000246565b506200027192915062000275565b5090565b5b8082111562000271576000815560010162000276565b6000602082840312156200029e578081fd5b81516001600160a01b0381168114620002b5578182fd5b9392505050565b600060208284031215620002ce578081fd5b81516001600160401b0380821115620002e5578283fd5b818401915084601f830112620002f9578283fd5b8151818111156200030e576200030e62000429565b604051601f8201601f19908116603f0116810190838211818310171562000339576200033962000429565b8160405282815287602084870101111562000352578586fd5b62000365836020830160208801620003b9565b979650505050505050565b6000845162000384818460208901620003b9565b8451908301906200039a818360208901620003b9565b8451910190620003af818360208801620003b9565b0195945050505050565b60005b83811015620003d6578181015183820152602001620003bc565b83811115620003e6576000848401525b50505050565b600181811c908216806200040157607f821691505b602082108114156200042357634e487b7160e01b600052602260045260246000fd5b50919050565b634e487b7160e01b600052604160045260246000fd5b61194d806200044f6000396000f3fe6080604052600436106101405760003560e01c80638fc7a25d116100b6578063a9059cbb1161006f578063a9059cbb14610390578063c2507ac1146103b0578063dd62ed3e146103d0578063e0486c8a146103f0578063e5dedefd14610410578063f979dcd71461043057600080fd5b80638fc7a25d146102ae57806395d89b41146102ce578063966dae0e146102e35780639c8f9f231461031b5780639d76ea5814610350578063a457c2d71461037057600080fd5b8063389d9a4011610108578063389d9a40146101fb578063395093511461021057806351c6590a1461023057806359bf5d391461024357806370319f691461025857806370a082311461027857600080fd5b806306fdde0314610145578063095ea7b31461017057806318160ddd146101a057806323b872dd146101bf578063313ce567146101df575b600080fd5b34801561015157600080fd5b5061015a610443565b60405161016791906117ce565b60405180910390f35b34801561017c57600080fd5b5061019061018b3660046115e3565b6104d5565b6040519015158152602001610167565b3480156101ac57600080fd5b506002545b604051908152602001610167565b3480156101cb57600080fd5b506101906101da3660046115a3565b6104ed565b3480156101eb57600080fd5b5060405160128152602001610167565b61020e6102093660046116fc565b610511565b005b34801561021c57600080fd5b5061019061022b3660046115e3565b61051f565b6101b161023e3660046116cc565b610541565b34801561024f57600080fd5b506101b1610706565b34801561026457600080fd5b5061020e610273366004611720565b610787565b34801561028457600080fd5b506101b1610293366004611533565b6001600160a01b031660009081526020819052604090205490565b3480156102ba57600080fd5b506101b16102c93660046116cc565b610980565b3480156102da57600080fd5b5061015a6109e8565b3480156102ef57600080fd5b50600654610303906001600160a01b031681565b6040516001600160a01b039091168152602001610167565b34801561032757600080fd5b5061033b6103363660046116cc565b6109f7565b60408051928352602083019190915201610167565b34801561035c57600080fd5b50600554610303906001600160a01b031681565b34801561037c57600080fd5b5061019061038b3660046115e3565b610b5b565b34801561039c57600080fd5b506101906103ab3660046115e3565b610bd6565b3480156103bc57600080fd5b506101b16103cb3660046116cc565b610be4565b3480156103dc57600080fd5b506101b16103eb36600461156b565b610c43565b3480156103fc57600080fd5b5061020e61040b366004611746565b610c6e565b34801561041c57600080fd5b5061015a61042b366004611533565b610d85565b61020e61043e3660046116cc565b610e63565b6060600380546104529061189b565b80601f016020809104026020016040519081016040528092919081815260200182805461047e9061189b565b80156104cb5780601f106104a0576101008083540402835291602001916104cb565b820191906000526020600020905b8154815290600101906020018083116104ae57829003601f168201915b5050505050905090565b6000336104e3818585610e70565b5060019392505050565b6000336104fb858285610f95565b610506858585611009565b506001949350505050565b61051b82826111ad565b5050565b6000336104e38185856105328383610c43565b61053c9190611801565b610e70565b600061054b610706565b6105e7576005546040516323b872dd60e01b81526001600160a01b03909116906323b872dd90610583903390309087906004016117aa565b602060405180830381600087803b15801561059d57600080fd5b505af11580156105b1573d6000803e3d6000fd5b505050506040513d601f19601f820116820180604052508101906105d5919061160e565b50476105e133826112ae565b92915050565b60006105f33447611858565b905060006105ff610706565b905060008261060e3484611839565b6106189190611819565b9050848110156106495760405162461bcd60e51b815260206004820152600060248201526044015b60405180910390fd5b6005546040516323b872dd60e01b81526001600160a01b03909116906323b872dd9061067d90339030908a906004016117aa565b602060405180830381600087803b15801561069757600080fd5b505af11580156106ab573d6000803e3d6000fd5b505050506040513d601f19601f820116820180604052508101906106cf919061160e565b50600083346106dd60025490565b6106e79190611839565b6106f19190611819565b90506106fd33826112ae565b95945050505050565b6005546040516370a0823160e01b81523060048201526000916001600160a01b0316906370a082319060240160206040518083038186803b15801561074a57600080fd5b505afa15801561075e573d6000803e3d6000fd5b505050506040513d601f19601f8201168201806040525081019061078291906116e4565b905090565b6006546040516303795fb160e11b81526001600160a01b03848116600483015260009216906306f2bf6290602401602060405180830381600087803b1580156107cf57600080fd5b505af11580156107e3573d6000803e3d6000fd5b505050506040513d601f19601f82011682018060405250810190610807919061154f565b90506001600160a01b038116301480159061082a57506001600160a01b03811615155b6108765760405162461bcd60e51b815260206004820152601860248201527f696e76616c69642065786368616e6765206164647265737300000000000000006044820152606401610640565b6000610880610706565b9050600061088f86834761136d565b6005546040516323b872dd60e01b81529192506001600160a01b0316906323b872dd906108c490339030908b906004016117aa565b602060405180830381600087803b1580156108de57600080fd5b505af11580156108f2573d6000803e3d6000fd5b505050506040513d601f19601f82011682018060405250810190610916919061160e565b5060405162e2766960e61b8152600481018590523360248201526001600160a01b0384169063389d9a409083906044016000604051808303818588803b15801561095f57600080fd5b505af1158015610973573d6000803e3d6000fd5b5050505050505050505050565b60008082116109ca5760405162461bcd60e51b81526020600482015260166024820152751d1bdad95b94dbdb19081a5cc81d1bdbc81cdb585b1b60521b6044820152606401610640565b60006109d4610706565b90506109e183824761136d565b9392505050565b6060600480546104529061189b565b60008060008311610a4a5760405162461bcd60e51b815260206004820152601960248201527f63616e27742072657175657374207a65726f20616d6f756e74000000000000006044820152606401610640565b6000610a5560025490565b610a5f4786611839565b610a699190611819565b90506000610a7660025490565b610a7e610706565b610a889087611839565b610a929190611819565b9050610a9e3386611409565b604051339083156108fc029084906000818181858888f19350505050158015610acb573d6000803e3d6000fd5b5060055460405163a9059cbb60e01b8152336004820152602481018390526001600160a01b039091169063a9059cbb90604401602060405180830381600087803b158015610b1857600080fd5b505af1158015610b2c573d6000803e3d6000fd5b505050506040513d601f19601f82011682018060405250810190610b50919061160e565b509094909350915050565b60003381610b698286610c43565b905083811015610bc95760405162461bcd60e51b815260206004820152602560248201527f45524332303a2064656372656173656420616c6c6f77616e63652062656c6f77604482015264207a65726f60d81b6064820152608401610640565b6105068286868403610e70565b6000336104e3818585611009565b6000808211610c2c5760405162461bcd60e51b8152602060048201526014602482015273195d1a14dbdb19081a5cc81d1bdbc81cdb585b1b60621b6044820152606401610640565b6000610c36610706565b90506109e183478361136d565b6001600160a01b03918216600090815260016020908152604080832093909416825291909152205490565b6000610c7983610980565b905081811015610ccb5760405162461bcd60e51b815260206004820152601a60248201527f696e73756666696369656e74206f757470757420616d6f756e740000000000006044820152606401610640565b6005546040516323b872dd60e01b81526001600160a01b03909116906323b872dd90610cff903390309088906004016117aa565b602060405180830381600087803b158015610d1957600080fd5b505af1158015610d2d573d6000803e3d6000fd5b505050506040513d601f19601f82011682018060405250810190610d51919061160e565b50604051339082156108fc029083906000818181858888f19350505050158015610d7f573d6000803e3d6000fd5b50505050565b60606000826001600160a01b03166395d89b416040518163ffffffff1660e01b815260040160006040518083038186803b158015610dc257600080fd5b505afa158015610dd6573d6000803e3d6000fd5b505050506040513d6000823e601f3d908101601f19168201604052610dfe919081019061162e565b9050604051806040016040528060048152602001634554482d60e01b81525081604051806040016040528060038152602001620204c560ec1b815250604051602001610e4c93929190611767565b604051602081830303815290604052915050919050565b610e6d81336111ad565b50565b6001600160a01b038316610ed25760405162461bcd60e51b8152602060048201526024808201527f45524332303a20617070726f76652066726f6d20746865207a65726f206164646044820152637265737360e01b6064820152608401610640565b6001600160a01b038216610f335760405162461bcd60e51b815260206004820152602260248201527f45524332303a20617070726f766520746f20746865207a65726f206164647265604482015261737360f01b6064820152608401610640565b6001600160a01b0383811660008181526001602090815260408083209487168084529482529182902085905590518481527f8c5be1e5ebec7d5bd14f71427d1e84f3dd0314c0f7b2291e5b200ac8c7c3b92591015b60405180910390a3505050565b6000610fa18484610c43565b90506000198114610d7f5781811015610ffc5760405162461bcd60e51b815260206004820152601d60248201527f45524332303a20696e73756666696369656e7420616c6c6f77616e63650000006044820152606401610640565b610d7f8484848403610e70565b6001600160a01b03831661106d5760405162461bcd60e51b815260206004820152602560248201527f45524332303a207472616e736665722066726f6d20746865207a65726f206164604482015264647265737360d81b6064820152608401610640565b6001600160a01b0382166110cf5760405162461bcd60e51b815260206004820152602360248201527f45524332303a207472616e7366657220746f20746865207a65726f206164647260448201526265737360e81b6064820152608401610640565b6001600160a01b038316600090815260208190526040902054818110156111475760405162461bcd60e51b815260206004820152602660248201527f45524332303a207472616e7366657220616d6f756e7420657863656564732062604482015265616c616e636560d01b6064820152608401610640565b6001600160a01b03848116600081815260208181526040808320878703905593871680835291849020805487019055925185815290927fddf252ad1be2c89b69c2b068fc378daa952ba7f163c4a11628f55a4df523b3ef910160405180910390a3610d7f565b60006111b7610706565b905060006111cf346111c98147611858565b8461136d565b9050838110156112215760405162461bcd60e51b815260206004820152601a60248201527f696e73756666696369656e74206f757470757420616d6f756e740000000000006044820152606401610640565b60055460405163a9059cbb60e01b81526001600160a01b038581166004830152602482018490529091169063a9059cbb90604401602060405180830381600087803b15801561126f57600080fd5b505af1158015611283573d6000803e3d6000fd5b505050506040513d601f19601f820116820180604052508101906112a7919061160e565b5050505050565b6001600160a01b0382166113045760405162461bcd60e51b815260206004820152601f60248201527f45524332303a206d696e7420746f20746865207a65726f2061646472657373006044820152606401610640565b80600260008282546113169190611801565b90915550506001600160a01b038216600081815260208181526040808320805486019055518481527fddf252ad1be2c89b69c2b068fc378daa952ba7f163c4a11628f55a4df523b3ef910160405180910390a35050565b6000808311801561137e5750600082115b6113bd5760405162461bcd60e51b815260206004820152601060248201526f696e76616c696420726573657276657360801b6044820152606401610640565b60006113ca856063611839565b905060006113d88483611839565b90506000826113e8876064611839565b6113f29190611801565b90506113fe8183611819565b979650505050505050565b6001600160a01b0382166114695760405162461bcd60e51b815260206004820152602160248201527f45524332303a206275726e2066726f6d20746865207a65726f206164647265736044820152607360f81b6064820152608401610640565b6001600160a01b038216600090815260208190526040902054818110156114dd5760405162461bcd60e51b815260206004820152602260248201527f45524332303a206275726e20616d6f756e7420657863656564732062616c616e604482015261636560f01b6064820152608401610640565b6001600160a01b0383166000818152602081815260408083208686039055600280548790039055518581529192917fddf252ad1be2c89b69c2b068fc378daa952ba7f163c4a11628f55a4df523b3ef9101610f88565b600060208284031215611544578081fd5b81356109e181611902565b600060208284031215611560578081fd5b81516109e181611902565b6000806040838503121561157d578081fd5b823561158881611902565b9150602083013561159881611902565b809150509250929050565b6000806000606084860312156115b7578081fd5b83356115c281611902565b925060208401356115d281611902565b929592945050506040919091013590565b600080604083850312156115f5578182fd5b823561160081611902565b946020939093013593505050565b60006020828403121561161f578081fd5b815180151581146109e1578182fd5b60006020828403121561163f578081fd5b815167ffffffffffffffff80821115611656578283fd5b818401915084601f830112611669578283fd5b81518181111561167b5761167b6118ec565b604051601f8201601f19908116603f011681019083821181831017156116a3576116a36118ec565b816040528281528760208487010111156116bb578586fd5b6113fe83602083016020880161186f565b6000602082840312156116dd578081fd5b5035919050565b6000602082840312156116f5578081fd5b5051919050565b6000806040838503121561170e578182fd5b82359150602083013561159881611902565b600080600060608486031215611734578283fd5b8335925060208401356115d281611902565b60008060408385031215611758578182fd5b50508035926020909101359150565b6000845161177981846020890161186f565b84519083019061178d81836020890161186f565b84519101906117a081836020880161186f565b0195945050505050565b6001600160a01b039384168152919092166020820152604081019190915260600190565b60208152600082518060208401526117ed81604085016020870161186f565b601f01601f19169190910160400192915050565b60008219821115611814576118146118d6565b500190565b60008261183457634e487b7160e01b81526012600452602481fd5b500490565b6000816000190483118215151615611853576118536118d6565b500290565b60008282101561186a5761186a6118d6565b500390565b60005b8381101561188a578181015183820152602001611872565b83811115610d7f5750506000910152565b600181811c908216806118af57607f821691505b602082108114156118d057634e487b7160e01b600052602260045260246000fd5b50919050565b634e487b7160e01b600052601160045260246000fd5b634e487b7160e01b600052604160045260246000fd5b6001600160a01b0381168114610e6d57600080fdfea2646970667358221220d17842a4ad022b664c211139c95ad49bce8b05695be1cf8e4295e1fb04330e6e64736f6c63430008040033",
    "linkReferences": {}
  },
  "methodIdentifiers": {
    "addLiquidity(uint256)": "51c6590a",
    "allowance(address,address)": "dd62ed3e",
    "approve(address,uint256)": "095ea7b3",
    "balanceOf(address)": "70a08231",
    "decimals()": "313ce567",
    "decreaseAllowance(address,uint256)": "a457c2d7",
    "ethToTokenSwap(uint256)": "f979dcd7",
    "ethToTokenTransfer(uint256,address)": "389d9a40",
    "factoryAddress()": "966dae0e",
    "getEthAmount(uint256)": "8fc7a25d",
    "getLPtoken(address)": "e5dedefd",
    "getReserve()": "59bf5d39",
    "getTokenAmount(uint256)": "c2507ac1",
    "increaseAllowance(address,uint256)": "39509351",
    "name()": "06fdde03",
    "removeLiquidity(uint256)": "9c8f9f23",
    "symbol()": "95d89b41",
    "tokenAddress()": "9d76ea58",
    "tokenToEthSwap(uint256,uint256)": "e0486c8a",
    "tokenToTokenSwap(uint256,address,uint256)": "70319f69",
    "totalSupply()": "18160ddd",
    "transfer(address,uint256)": "a9059cbb",
    "transferFrom(address,address,uint256)": "23b872dd"
  },
  "id": 0
}